{"contracts/Certificate.sol":{"Certificate":{"abi":[{"inputs":[{"internalType":"address","name":"registryAddress","type":"address"},{"internalType":"address","name":"courseManagerAddress","type":"address"}],"stateMutability":"nonpayable","type":"constructor"},{"anonymous":false,"inputs":[{"indexed":true,"internalType":"address","name":"student","type":"address"},{"indexed":false,"internalType":"string","name":"courseTitle","type":"string"},{"indexed":false,"internalType":"uint256","name":"date","type":"uint256"}],"name":"CertificateIssued","type":"event"},{"inputs":[{"internalType":"address","name":"","type":"address"},{"internalType":"uint256","name":"","type":"uint256"}],"name":"certificates","outputs":[{"internalType":"address","name":"student","type":"address"},{"internalType":"string","name":"courseTitle","type":"string"},{"internalType":"uint256","name":"issueDate","type":"uint256"},{"internalType":"uint256","name":"certificateId","type":"uint256"}],"stateMutability":"view","type":"function"},{"inputs":[],"name":"courseManager","outputs":[{"internalType":"contract CourseManager","name":"","type":"address"}],"stateMutability":"view","type":"function"},{"inputs":[{"internalType":"address","name":"student","type":"address"}],"name":"getCertificates","outputs":[{"components":[{"internalType":"address","name":"student","type":"address"},{"internalType":"string","name":"courseTitle","type":"string"},{"internalType":"uint256","name":"issueDate","type":"uint256"},{"internalType":"uint256","name":"certificateId","type":"uint256"}],"internalType":"struct Certificate.CertificateData[]","name":"","type":"tuple[]"}],"stateMutability":"view","type":"function"},{"inputs":[{"internalType":"address","name":"studentAddr","type":"address"},{"internalType":"string","name":"courseTitle","type":"string"}],"name":"issueCertificate","outputs":[],"stateMutability":"nonpayable","type":"function"},{"inputs":[],"name":"registry","outputs":[{"internalType":"contract StudentRegistry","name":"","type":"address"}],"stateMutability":"view","type":"function"}],"evm":{"bytecode":{"linkReferences":{},"object":"608060405234801561001057600080fd5b50604051610d00380380610d0083398101604081905261002f9161007f565b600080546001600160a01b039384166001600160a01b031991821617909155600180549290931691161781556003556100b2565b80516001600160a01b038116811461007a57600080fd5b919050565b6000806040838503121561009257600080fd5b61009b83610063565b91506100a960208401610063565b90509250929050565b610c3f806100c16000396000f3fe608060405234801561001057600080fd5b50600436106100575760003560e01c806346f3141c1461005c5780634b4f710a146100885780637b103999146100b3578063bb721aab146100c6578063f1c49c62146100db575b600080fd5b61006f61006a36600461064d565b6100fb565b60405161007f94939291906106c9565b60405180910390f35b60015461009b906001600160a01b031681565b6040516001600160a01b03909116815260200161007f565b60005461009b906001600160a01b031681565b6100d96100d436600461076f565b6101d7565b005b6100ee6100e9366004610802565b61038b565b60405161007f9190610826565b6002602052816000526040600020818154811061011757600080fd5b6000918252602090912060049091020180546001820180546001600160a01b039092169450919250610148906108bc565b80601f0160208091040260200160405190810160405280929190818152602001828054610174906108bc565b80156101c15780601f10610196576101008083540402835291602001916101c1565b820191906000526020600020905b8154815290600101906020018083116101a457829003601f168201915b5050505050908060020154908060030154905084565b600054604051636b7b44d760e01b81526001600160a01b03848116600483015290911690636b7b44d790602401600060405180830381865afa158015610221573d6000803e3d6000fd5b505050506040513d6000823e601f3d908101601f191682016040526102499190810190610943565b5050505050610257816104bc565b61029a5760405162461bcd60e51b815260206004820152601060248201526f10dbdd5c9cd9481b9bdd08199bdd5b9960821b604482015260640160405180910390fd5b604080516080810182526001600160a01b0384811680835260208084018681524285870152600354606086015260009283526002825294822080546001808201835591845291909220845160049092020180546001600160a01b03191691909316178255925191928392908201906103129082610a2c565b506040820151816002015560608201518160030155505060016003600082825461033c9190610b02565b92505081905550826001600160a01b03167f7cfe81bfb9e8d3dcb7ad648448aa616885521676a3e99ed538a415d60e19a479834260405161037e929190610b1b565b60405180910390a2505050565b6001600160a01b0381166000908152600260209081526040808320805482518185028101850190935280835260609492939192909184015b828210156104b157600084815260209081902060408051608081019091526004850290910180546001600160a01b03168252600181018054929391929184019161040c906108bc565b80601f0160208091040260200160405190810160405280929190818152602001828054610438906108bc565b80156104855780601f1061045a57610100808354040283529160200191610485565b820191906000526020600020905b81548152906001019060200180831161046857829003601f168201915b5050505050815260200160028201548152602001600382015481525050815260200190600101906103c3565b505050509050919050565b600080600160009054906101000a90046001600160a01b03166001600160a01b031663042799886040518163ffffffff1660e01b8152600401602060405180830381865afa158015610512573d6000803e3d6000fd5b505050506040513d601f19601f820116820180604052508101906105369190610b3d565b905060005b8181101561062b57600154604051630b91e28d60e01b8152600481018390526000916001600160a01b031690630b91e28d90602401600060405180830381865afa15801561058d573d6000803e3d6000fd5b505050506040513d6000823e601f3d908101601f191682016040526105b59190810190610b56565b5050509050846040516020016105cb9190610bd4565b60405160208183030381529060405280519060200120816040516020016105f29190610bd4565b604051602081830303815290604052805190602001200361061857506001949350505050565b508061062381610bf0565b91505061053b565b5060009392505050565b6001600160a01b038116811461064a57600080fd5b50565b6000806040838503121561066057600080fd5b823561066b81610635565b946020939093013593505050565b60005b8381101561069457818101518382015260200161067c565b50506000910152565b600081518084526106b5816020860160208601610679565b601f01601f19169290920160200192915050565b6001600160a01b03851681526080602082018190526000906106ed9083018661069d565b6040830194909452506060015292915050565b634e487b7160e01b600052604160045260246000fd5b604051601f8201601f1916810167ffffffffffffffff8111828210171561073f5761073f610700565b604052919050565b600067ffffffffffffffff82111561076157610761610700565b50601f01601f191660200190565b6000806040838503121561078257600080fd5b823561078d81610635565b9150602083013567ffffffffffffffff8111156107a957600080fd5b8301601f810185136107ba57600080fd5b80356107cd6107c882610747565b610716565b8181528660208385010111156107e257600080fd5b816020840160208301376000602083830101528093505050509250929050565b60006020828403121561081457600080fd5b813561081f81610635565b9392505050565b60006020808301818452808551808352604092508286019150828160051b87010184880160005b838110156108ae57888303603f19018552815180516001600160a01b03168452878101516080898601819052906108868287018261069d565b838a0151878b015260609384015193909601929092525050938601939086019060010161084d565b509098975050505050505050565b600181811c908216806108d057607f821691505b6020821081036108f057634e487b7160e01b600052602260045260246000fd5b50919050565b600082601f83011261090757600080fd5b81516109156107c882610747565b81815284602083860101111561092a57600080fd5b61093b826020830160208701610679565b949350505050565b600080600080600060a0868803121561095b57600080fd5b855167ffffffffffffffff8082111561097357600080fd5b61097f89838a016108f6565b9650602088015195506040880151915061099882610635565b6060880151919450808211156109ad57600080fd5b506109ba888289016108f6565b9250506080860151600381106109cf57600080fd5b809150509295509295909350565b601f821115610a2757600081815260208120601f850160051c81016020861015610a045750805b601f850160051c820191505b81811015610a2357828155600101610a10565b5050505b505050565b815167ffffffffffffffff811115610a4657610a46610700565b610a5a81610a5484546108bc565b846109dd565b602080601f831160018114610a8f5760008415610a775750858301515b600019600386901b1c1916600185901b178555610a23565b600085815260208120601f198616915b82811015610abe57888601518255948401946001909101908401610a9f565b5085821015610adc5787850151600019600388901b60f8161c191681555b5050505050600190811b01905550565b634e487b7160e01b600052601160045260246000fd5b80820180821115610b1557610b15610aec565b92915050565b604081526000610b2e604083018561069d565b90508260208301529392505050565b600060208284031215610b4f57600080fd5b5051919050565b60008060008060808587031215610b6c57600080fd5b845167ffffffffffffffff80821115610b8457600080fd5b610b90888389016108f6565b95506020870151915080821115610ba657600080fd5b50610bb3878288016108f6565b9350506040850151610bc481610635565b6060959095015193969295505050565b60008251610be6818460208701610679565b9190910192915050565b600060018201610c0257610c02610aec565b506001019056fea26469706673582212209ca03ba67c60c5b5e72e64a7eefd9ad3b70fb2748d3d236c6293a65f90b713fb64736f6c63430008140033","opcodes":"PUSH1 0x80 PUSH1 0x40 MSTORE CALLVALUE DUP1 ISZERO PUSH2 0x10 JUMPI PUSH1 0x0 DUP1 REVERT JUMPDEST POP PUSH1 0x40 MLOAD PUSH2 0xD00 CODESIZE SUB DUP1 PUSH2 0xD00 DUP4 CODECOPY DUP2 ADD PUSH1 0x40 DUP2 SWAP1 MSTORE PUSH2 0x2F SWAP2 PUSH2 0x7F JUMP JUMPDEST PUSH1 0x0 DUP1 SLOAD PUSH1 0x1 PUSH1 0x1 PUSH1 0xA0 SHL SUB SWAP4 DUP5 AND PUSH1 0x1 PUSH1 0x1 PUSH1 0xA0 SHL SUB NOT SWAP2 DUP3 AND OR SWAP1 SWAP2 SSTORE PUSH1 0x1 DUP1 SLOAD SWAP3 SWAP1 SWAP4 AND SWAP2 AND OR DUP2 SSTORE PUSH1 0x3 SSTORE PUSH2 0xB2 JUMP JUMPDEST DUP1 MLOAD PUSH1 0x1 PUSH1 0x1 PUSH1 0xA0 SHL SUB DUP2 AND DUP2 EQ PUSH2 0x7A JUMPI PUSH1 0x0 DUP1 REVERT JUMPDEST SWAP2 SWAP1 POP JUMP JUMPDEST PUSH1 0x0 DUP1 PUSH1 0x40 DUP4 DUP6 SUB SLT ISZERO PUSH2 0x92 JUMPI PUSH1 0x0 DUP1 REVERT JUMPDEST PUSH2 0x9B DUP4 PUSH2 0x63 JUMP JUMPDEST SWAP2 POP PUSH2 0xA9 PUSH1 0x20 DUP5 ADD PUSH2 0x63 JUMP JUMPDEST SWAP1 POP SWAP3 POP SWAP3 SWAP1 POP JUMP JUMPDEST PUSH2 0xC3F DUP1 PUSH2 0xC1 PUSH1 0x0 CODECOPY PUSH1 0x0 RETURN INVALID PUSH1 0x80 PUSH1 0x40 MSTORE CALLVALUE DUP1 ISZERO PUSH2 0x10 JUMPI PUSH1 0x0 DUP1 REVERT JUMPDEST POP PUSH1 0x4 CALLDATASIZE LT PUSH2 0x57 JUMPI PUSH1 0x0 CALLDATALOAD PUSH1 0xE0 SHR DUP1 PUSH4 0x46F3141C EQ PUSH2 0x5C JUMPI DUP1 PUSH4 0x4B4F710A EQ PUSH2 0x88 JUMPI DUP1 PUSH4 0x7B103999 EQ PUSH2 0xB3 JUMPI DUP1 PUSH4 0xBB721AAB EQ PUSH2 0xC6 JUMPI DUP1 PUSH4 0xF1C49C62 EQ PUSH2 0xDB JUMPI JUMPDEST PUSH1 0x0 DUP1 REVERT JUMPDEST PUSH2 0x6F PUSH2 0x6A CALLDATASIZE PUSH1 0x4 PUSH2 0x64D JUMP JUMPDEST PUSH2 0xFB JUMP JUMPDEST PUSH1 0x40 MLOAD PUSH2 0x7F SWAP5 SWAP4 SWAP3 SWAP2 SWAP1 PUSH2 0x6C9 JUMP JUMPDEST PUSH1 0x40 MLOAD DUP1 SWAP2 SUB SWAP1 RETURN JUMPDEST PUSH1 0x1 SLOAD PUSH2 0x9B SWAP1 PUSH1 0x1 PUSH1 0x1 PUSH1 0xA0 SHL SUB AND DUP2 JUMP JUMPDEST PUSH1 0x40 MLOAD PUSH1 0x1 PUSH1 0x1 PUSH1 0xA0 SHL SUB SWAP1 SWAP2 AND DUP2 MSTORE PUSH1 0x20 ADD PUSH2 0x7F JUMP JUMPDEST PUSH1 0x0 SLOAD PUSH2 0x9B SWAP1 PUSH1 0x1 PUSH1 0x1 PUSH1 0xA0 SHL SUB AND DUP2 JUMP JUMPDEST PUSH2 0xD9 PUSH2 0xD4 CALLDATASIZE PUSH1 0x4 PUSH2 0x76F JUMP JUMPDEST PUSH2 0x1D7 JUMP JUMPDEST STOP JUMPDEST PUSH2 0xEE PUSH2 0xE9 CALLDATASIZE PUSH1 0x4 PUSH2 0x802 JUMP JUMPDEST PUSH2 0x38B JUMP JUMPDEST PUSH1 0x40 MLOAD PUSH2 0x7F SWAP2 SWAP1 PUSH2 0x826 JUMP JUMPDEST PUSH1 0x2 PUSH1 0x20 MSTORE DUP2 PUSH1 0x0 MSTORE PUSH1 0x40 PUSH1 0x0 KECCAK256 DUP2 DUP2 SLOAD DUP2 LT PUSH2 0x117 JUMPI PUSH1 0x0 DUP1 REVERT JUMPDEST PUSH1 0x0 SWAP2 DUP3 MSTORE PUSH1 0x20 SWAP1 SWAP2 KECCAK256 PUSH1 0x4 SWAP1 SWAP2 MUL ADD DUP1 SLOAD PUSH1 0x1 DUP3 ADD DUP1 SLOAD PUSH1 0x1 PUSH1 0x1 PUSH1 0xA0 SHL SUB SWAP1 SWAP3 AND SWAP5 POP SWAP2 SWAP3 POP PUSH2 0x148 SWAP1 PUSH2 0x8BC JUMP JUMPDEST DUP1 PUSH1 0x1F ADD PUSH1 0x20 DUP1 SWAP2 DIV MUL PUSH1 0x20 ADD PUSH1 0x40 MLOAD SWAP1 DUP2 ADD PUSH1 0x40 MSTORE DUP1 SWAP3 SWAP2 SWAP1 DUP2 DUP2 MSTORE PUSH1 0x20 ADD DUP3 DUP1 SLOAD PUSH2 0x174 SWAP1 PUSH2 0x8BC JUMP JUMPDEST DUP1 ISZERO PUSH2 0x1C1 JUMPI DUP1 PUSH1 0x1F LT PUSH2 0x196 JUMPI PUSH2 0x100 DUP1 DUP4 SLOAD DIV MUL DUP4 MSTORE SWAP2 PUSH1 0x20 ADD SWAP2 PUSH2 0x1C1 JUMP JUMPDEST DUP3 ADD SWAP2 SWAP1 PUSH1 0x0 MSTORE PUSH1 0x20 PUSH1 0x0 KECCAK256 SWAP1 JUMPDEST DUP2 SLOAD DUP2 MSTORE SWAP1 PUSH1 0x1 ADD SWAP1 PUSH1 0x20 ADD DUP1 DUP4 GT PUSH2 0x1A4 JUMPI DUP3 SWAP1 SUB PUSH1 0x1F AND DUP3 ADD SWAP2 JUMPDEST POP POP POP POP POP SWAP1 DUP1 PUSH1 0x2 ADD SLOAD SWAP1 DUP1 PUSH1 0x3 ADD SLOAD SWAP1 POP DUP5 JUMP JUMPDEST PUSH1 0x0 SLOAD PUSH1 0x40 MLOAD PUSH4 0x6B7B44D7 PUSH1 0xE0 SHL DUP2 MSTORE PUSH1 0x1 PUSH1 0x1 PUSH1 0xA0 SHL SUB DUP5 DUP2 AND PUSH1 0x4 DUP4 ADD MSTORE SWAP1 SWAP2 AND SWAP1 PUSH4 0x6B7B44D7 SWAP1 PUSH1 0x24 ADD PUSH1 0x0 PUSH1 0x40 MLOAD DUP1 DUP4 SUB DUP2 DUP7 GAS STATICCALL ISZERO DUP1 ISZERO PUSH2 0x221 JUMPI RETURNDATASIZE PUSH1 0x0 DUP1 RETURNDATACOPY RETURNDATASIZE PUSH1 0x0 REVERT JUMPDEST POP POP POP POP PUSH1 0x40 MLOAD RETURNDATASIZE PUSH1 0x0 DUP3 RETURNDATACOPY PUSH1 0x1F RETURNDATASIZE SWAP1 DUP2 ADD PUSH1 0x1F NOT AND DUP3 ADD PUSH1 0x40 MSTORE PUSH2 0x249 SWAP2 SWAP1 DUP2 ADD SWAP1 PUSH2 0x943 JUMP JUMPDEST POP POP POP POP POP PUSH2 0x257 DUP2 PUSH2 0x4BC JUMP JUMPDEST PUSH2 0x29A JUMPI PUSH1 0x40 MLOAD PUSH3 0x461BCD PUSH1 0xE5 SHL DUP2 MSTORE PUSH1 0x20 PUSH1 0x4 DUP3 ADD MSTORE PUSH1 0x10 PUSH1 0x24 DUP3 ADD MSTORE PUSH16 0x10DBDD5C9CD9481B9BDD08199BDD5B99 PUSH1 0x82 SHL PUSH1 0x44 DUP3 ADD MSTORE PUSH1 0x64 ADD PUSH1 0x40 MLOAD DUP1 SWAP2 SUB SWAP1 REVERT JUMPDEST PUSH1 0x40 DUP1 MLOAD PUSH1 0x80 DUP2 ADD DUP3 MSTORE PUSH1 0x1 PUSH1 0x1 PUSH1 0xA0 SHL SUB DUP5 DUP2 AND DUP1 DUP4 MSTORE PUSH1 0x20 DUP1 DUP5 ADD DUP7 DUP2 MSTORE TIMESTAMP DUP6 DUP8 ADD MSTORE PUSH1 0x3 SLOAD PUSH1 0x60 DUP7 ADD MSTORE PUSH1 0x0 SWAP3 DUP4 MSTORE PUSH1 0x2 DUP3 MSTORE SWAP5 DUP3 KECCAK256 DUP1 SLOAD PUSH1 0x1 DUP1 DUP3 ADD DUP4 SSTORE SWAP2 DUP5 MSTORE SWAP2 SWAP1 SWAP3 KECCAK256 DUP5 MLOAD PUSH1 0x4 SWAP1 SWAP3 MUL ADD DUP1 SLOAD PUSH1 0x1 PUSH1 0x1 PUSH1 0xA0 SHL SUB NOT AND SWAP2 SWAP1 SWAP4 AND OR DUP3 SSTORE SWAP3 MLOAD SWAP2 SWAP3 DUP4 SWAP3 SWAP1 DUP3 ADD SWAP1 PUSH2 0x312 SWAP1 DUP3 PUSH2 0xA2C JUMP JUMPDEST POP PUSH1 0x40 DUP3 ADD MLOAD DUP2 PUSH1 0x2 ADD SSTORE PUSH1 0x60 DUP3 ADD MLOAD DUP2 PUSH1 0x3 ADD SSTORE POP POP PUSH1 0x1 PUSH1 0x3 PUSH1 0x0 DUP3 DUP3 SLOAD PUSH2 0x33C SWAP2 SWAP1 PUSH2 0xB02 JUMP JUMPDEST SWAP3 POP POP DUP2 SWAP1 SSTORE POP DUP3 PUSH1 0x1 PUSH1 0x1 PUSH1 0xA0 SHL SUB AND PUSH32 0x7CFE81BFB9E8D3DCB7AD648448AA616885521676A3E99ED538A415D60E19A479 DUP4 TIMESTAMP PUSH1 0x40 MLOAD PUSH2 0x37E SWAP3 SWAP2 SWAP1 PUSH2 0xB1B JUMP JUMPDEST PUSH1 0x40 MLOAD DUP1 SWAP2 SUB SWAP1 LOG2 POP POP POP JUMP JUMPDEST PUSH1 0x1 PUSH1 0x1 PUSH1 0xA0 SHL SUB DUP2 AND PUSH1 0x0 SWAP1 DUP2 MSTORE PUSH1 0x2 PUSH1 0x20 SWAP1 DUP2 MSTORE PUSH1 0x40 DUP1 DUP4 KECCAK256 DUP1 SLOAD DUP3 MLOAD DUP2 DUP6 MUL DUP2 ADD DUP6 ADD SWAP1 SWAP4 MSTORE DUP1 DUP4 MSTORE PUSH1 0x60 SWAP5 SWAP3 SWAP4 SWAP2 SWAP3 SWAP1 SWAP2 DUP5 ADD JUMPDEST DUP3 DUP3 LT ISZERO PUSH2 0x4B1 JUMPI PUSH1 0x0 DUP5 DUP2 MSTORE PUSH1 0x20 SWAP1 DUP2 SWAP1 KECCAK256 PUSH1 0x40 DUP1 MLOAD PUSH1 0x80 DUP2 ADD SWAP1 SWAP2 MSTORE PUSH1 0x4 DUP6 MUL SWAP1 SWAP2 ADD DUP1 SLOAD PUSH1 0x1 PUSH1 0x1 PUSH1 0xA0 SHL SUB AND DUP3 MSTORE PUSH1 0x1 DUP2 ADD DUP1 SLOAD SWAP3 SWAP4 SWAP2 SWAP3 SWAP2 DUP5 ADD SWAP2 PUSH2 0x40C SWAP1 PUSH2 0x8BC JUMP JUMPDEST DUP1 PUSH1 0x1F ADD PUSH1 0x20 DUP1 SWAP2 DIV MUL PUSH1 0x20 ADD PUSH1 0x40 MLOAD SWAP1 DUP2 ADD PUSH1 0x40 MSTORE DUP1 SWAP3 SWAP2 SWAP1 DUP2 DUP2 MSTORE PUSH1 0x20 ADD DUP3 DUP1 SLOAD PUSH2 0x438 SWAP1 PUSH2 0x8BC JUMP JUMPDEST DUP1 ISZERO PUSH2 0x485 JUMPI DUP1 PUSH1 0x1F LT PUSH2 0x45A JUMPI PUSH2 0x100 DUP1 DUP4 SLOAD DIV MUL DUP4 MSTORE SWAP2 PUSH1 0x20 ADD SWAP2 PUSH2 0x485 JUMP JUMPDEST DUP3 ADD SWAP2 SWAP1 PUSH1 0x0 MSTORE PUSH1 0x20 PUSH1 0x0 KECCAK256 SWAP1 JUMPDEST DUP2 SLOAD DUP2 MSTORE SWAP1 PUSH1 0x1 ADD SWAP1 PUSH1 0x20 ADD DUP1 DUP4 GT PUSH2 0x468 JUMPI DUP3 SWAP1 SUB PUSH1 0x1F AND DUP3 ADD SWAP2 JUMPDEST POP POP POP POP POP DUP2 MSTORE PUSH1 0x20 ADD PUSH1 0x2 DUP3 ADD SLOAD DUP2 MSTORE PUSH1 0x20 ADD PUSH1 0x3 DUP3 ADD SLOAD DUP2 MSTORE POP POP DUP2 MSTORE PUSH1 0x20 ADD SWAP1 PUSH1 0x1 ADD SWAP1 PUSH2 0x3C3 JUMP JUMPDEST POP POP POP POP SWAP1 POP SWAP2 SWAP1 POP JUMP JUMPDEST PUSH1 0x0 DUP1 PUSH1 0x1 PUSH1 0x0 SWAP1 SLOAD SWAP1 PUSH2 0x100 EXP SWAP1 DIV PUSH1 0x1 PUSH1 0x1 PUSH1 0xA0 SHL SUB AND PUSH1 0x1 PUSH1 0x1 PUSH1 0xA0 SHL SUB AND PUSH4 0x4279988 PUSH1 0x40 MLOAD DUP2 PUSH4 0xFFFFFFFF AND PUSH1 0xE0 SHL DUP2 MSTORE PUSH1 0x4 ADD PUSH1 0x20 PUSH1 0x40 MLOAD DUP1 DUP4 SUB DUP2 DUP7 GAS STATICCALL ISZERO DUP1 ISZERO PUSH2 0x512 JUMPI RETURNDATASIZE PUSH1 0x0 DUP1 RETURNDATACOPY RETURNDATASIZE PUSH1 0x0 REVERT JUMPDEST POP POP POP POP PUSH1 0x40 MLOAD RETURNDATASIZE PUSH1 0x1F NOT PUSH1 0x1F DUP3 ADD AND DUP3 ADD DUP1 PUSH1 0x40 MSTORE POP DUP2 ADD SWAP1 PUSH2 0x536 SWAP2 SWAP1 PUSH2 0xB3D JUMP JUMPDEST SWAP1 POP PUSH1 0x0 JUMPDEST DUP2 DUP2 LT ISZERO PUSH2 0x62B JUMPI PUSH1 0x1 SLOAD PUSH1 0x40 MLOAD PUSH4 0xB91E28D PUSH1 0xE0 SHL DUP2 MSTORE PUSH1 0x4 DUP2 ADD DUP4 SWAP1 MSTORE PUSH1 0x0 SWAP2 PUSH1 0x1 PUSH1 0x1 PUSH1 0xA0 SHL SUB AND SWAP1 PUSH4 0xB91E28D SWAP1 PUSH1 0x24 ADD PUSH1 0x0 PUSH1 0x40 MLOAD DUP1 DUP4 SUB DUP2 DUP7 GAS STATICCALL ISZERO DUP1 ISZERO PUSH2 0x58D JUMPI RETURNDATASIZE PUSH1 0x0 DUP1 RETURNDATACOPY RETURNDATASIZE PUSH1 0x0 REVERT JUMPDEST POP POP POP POP PUSH1 0x40 MLOAD RETURNDATASIZE PUSH1 0x0 DUP3 RETURNDATACOPY PUSH1 0x1F RETURNDATASIZE SWAP1 DUP2 ADD PUSH1 0x1F NOT AND DUP3 ADD PUSH1 0x40 MSTORE PUSH2 0x5B5 SWAP2 SWAP1 DUP2 ADD SWAP1 PUSH2 0xB56 JUMP JUMPDEST POP POP POP SWAP1 POP DUP5 PUSH1 0x40 MLOAD PUSH1 0x20 ADD PUSH2 0x5CB SWAP2 SWAP1 PUSH2 0xBD4 JUMP JUMPDEST PUSH1 0x40 MLOAD PUSH1 0x20 DUP2 DUP4 SUB SUB DUP2 MSTORE SWAP1 PUSH1 0x40 MSTORE DUP1 MLOAD SWAP1 PUSH1 0x20 ADD KECCAK256 DUP2 PUSH1 0x40 MLOAD PUSH1 0x20 ADD PUSH2 0x5F2 SWAP2 SWAP1 PUSH2 0xBD4 JUMP JUMPDEST PUSH1 0x40 MLOAD PUSH1 0x20 DUP2 DUP4 SUB SUB DUP2 MSTORE SWAP1 PUSH1 0x40 MSTORE DUP1 MLOAD SWAP1 PUSH1 0x20 ADD KECCAK256 SUB PUSH2 0x618 JUMPI POP PUSH1 0x1 SWAP5 SWAP4 POP POP POP POP JUMP JUMPDEST POP DUP1 PUSH2 0x623 DUP2 PUSH2 0xBF0 JUMP JUMPDEST SWAP2 POP POP PUSH2 0x53B JUMP JUMPDEST POP PUSH1 0x0 SWAP4 SWAP3 POP POP POP JUMP JUMPDEST PUSH1 0x1 PUSH1 0x1 PUSH1 0xA0 SHL SUB DUP2 AND DUP2 EQ PUSH2 0x64A JUMPI PUSH1 0x0 DUP1 REVERT JUMPDEST POP JUMP JUMPDEST PUSH1 0x0 DUP1 PUSH1 0x40 DUP4 DUP6 SUB SLT ISZERO PUSH2 0x660 JUMPI PUSH1 0x0 DUP1 REVERT JUMPDEST DUP3 CALLDATALOAD PUSH2 0x66B DUP2 PUSH2 0x635 JUMP JUMPDEST SWAP5 PUSH1 0x20 SWAP4 SWAP1 SWAP4 ADD CALLDATALOAD SWAP4 POP POP POP JUMP JUMPDEST PUSH1 0x0 JUMPDEST DUP4 DUP2 LT ISZERO PUSH2 0x694 JUMPI DUP2 DUP2 ADD MLOAD DUP4 DUP3 ADD MSTORE PUSH1 0x20 ADD PUSH2 0x67C JUMP JUMPDEST POP POP PUSH1 0x0 SWAP2 ADD MSTORE JUMP JUMPDEST PUSH1 0x0 DUP2 MLOAD DUP1 DUP5 MSTORE PUSH2 0x6B5 DUP2 PUSH1 0x20 DUP7 ADD PUSH1 0x20 DUP7 ADD PUSH2 0x679 JUMP JUMPDEST PUSH1 0x1F ADD PUSH1 0x1F NOT AND SWAP3 SWAP1 SWAP3 ADD PUSH1 0x20 ADD SWAP3 SWAP2 POP POP JUMP JUMPDEST PUSH1 0x1 PUSH1 0x1 PUSH1 0xA0 SHL SUB DUP6 AND DUP2 MSTORE PUSH1 0x80 PUSH1 0x20 DUP3 ADD DUP2 SWAP1 MSTORE PUSH1 0x0 SWAP1 PUSH2 0x6ED SWAP1 DUP4 ADD DUP7 PUSH2 0x69D JUMP JUMPDEST PUSH1 0x40 DUP4 ADD SWAP5 SWAP1 SWAP5 MSTORE POP PUSH1 0x60 ADD MSTORE SWAP3 SWAP2 POP POP JUMP JUMPDEST PUSH4 0x4E487B71 PUSH1 0xE0 SHL PUSH1 0x0 MSTORE PUSH1 0x41 PUSH1 0x4 MSTORE PUSH1 0x24 PUSH1 0x0 REVERT JUMPDEST PUSH1 0x40 MLOAD PUSH1 0x1F DUP3 ADD PUSH1 0x1F NOT AND DUP2 ADD PUSH8 0xFFFFFFFFFFFFFFFF DUP2 GT DUP3 DUP3 LT OR ISZERO PUSH2 0x73F JUMPI PUSH2 0x73F PUSH2 0x700 JUMP JUMPDEST PUSH1 0x40 MSTORE SWAP2 SWAP1 POP JUMP JUMPDEST PUSH1 0x0 PUSH8 0xFFFFFFFFFFFFFFFF DUP3 GT ISZERO PUSH2 0x761 JUMPI PUSH2 0x761 PUSH2 0x700 JUMP JUMPDEST POP PUSH1 0x1F ADD PUSH1 0x1F NOT AND PUSH1 0x20 ADD SWAP1 JUMP JUMPDEST PUSH1 0x0 DUP1 PUSH1 0x40 DUP4 DUP6 SUB SLT ISZERO PUSH2 0x782 JUMPI PUSH1 0x0 DUP1 REVERT JUMPDEST DUP3 CALLDATALOAD PUSH2 0x78D DUP2 PUSH2 0x635 JUMP JUMPDEST SWAP2 POP PUSH1 0x20 DUP4 ADD CALLDATALOAD PUSH8 0xFFFFFFFFFFFFFFFF DUP2 GT ISZERO PUSH2 0x7A9 JUMPI PUSH1 0x0 DUP1 REVERT JUMPDEST DUP4 ADD PUSH1 0x1F DUP2 ADD DUP6 SGT PUSH2 0x7BA JUMPI PUSH1 0x0 DUP1 REVERT JUMPDEST DUP1 CALLDATALOAD PUSH2 0x7CD PUSH2 0x7C8 DUP3 PUSH2 0x747 JUMP JUMPDEST PUSH2 0x716 JUMP JUMPDEST DUP2 DUP2 MSTORE DUP7 PUSH1 0x20 DUP4 DUP6 ADD ADD GT ISZERO PUSH2 0x7E2 JUMPI PUSH1 0x0 DUP1 REVERT JUMPDEST DUP2 PUSH1 0x20 DUP5 ADD PUSH1 0x20 DUP4 ADD CALLDATACOPY PUSH1 0x0 PUSH1 0x20 DUP4 DUP4 ADD ADD MSTORE DUP1 SWAP4 POP POP POP POP SWAP3 POP SWAP3 SWAP1 POP JUMP JUMPDEST PUSH1 0x0 PUSH1 0x20 DUP3 DUP5 SUB SLT ISZERO PUSH2 0x814 JUMPI PUSH1 0x0 DUP1 REVERT JUMPDEST DUP2 CALLDATALOAD PUSH2 0x81F DUP2 PUSH2 0x635 JUMP JUMPDEST SWAP4 SWAP3 POP POP POP JUMP JUMPDEST PUSH1 0x0 PUSH1 0x20 DUP1 DUP4 ADD DUP2 DUP5 MSTORE DUP1 DUP6 MLOAD DUP1 DUP4 MSTORE PUSH1 0x40 SWAP3 POP DUP3 DUP7 ADD SWAP2 POP DUP3 DUP2 PUSH1 0x5 SHL DUP8 ADD ADD DUP5 DUP9 ADD PUSH1 0x0 JUMPDEST DUP4 DUP2 LT ISZERO PUSH2 0x8AE JUMPI DUP9 DUP4 SUB PUSH1 0x3F NOT ADD DUP6 MSTORE DUP2 MLOAD DUP1 MLOAD PUSH1 0x1 PUSH1 0x1 PUSH1 0xA0 SHL SUB AND DUP5 MSTORE DUP8 DUP2 ADD MLOAD PUSH1 0x80 DUP10 DUP7 ADD DUP2 SWAP1 MSTORE SWAP1 PUSH2 0x886 DUP3 DUP8 ADD DUP3 PUSH2 0x69D JUMP JUMPDEST DUP4 DUP11 ADD MLOAD DUP8 DUP12 ADD MSTORE PUSH1 0x60 SWAP4 DUP5 ADD MLOAD SWAP4 SWAP1 SWAP7 ADD SWAP3 SWAP1 SWAP3 MSTORE POP POP SWAP4 DUP7 ADD SWAP4 SWAP1 DUP7 ADD SWAP1 PUSH1 0x1 ADD PUSH2 0x84D JUMP JUMPDEST POP SWAP1 SWAP9 SWAP8 POP POP POP POP POP POP POP POP JUMP JUMPDEST PUSH1 0x1 DUP2 DUP2 SHR SWAP1 DUP3 AND DUP1 PUSH2 0x8D0 JUMPI PUSH1 0x7F DUP3 AND SWAP2 POP JUMPDEST PUSH1 0x20 DUP3 LT DUP2 SUB PUSH2 0x8F0 JUMPI PUSH4 0x4E487B71 PUSH1 0xE0 SHL PUSH1 0x0 MSTORE PUSH1 0x22 PUSH1 0x4 MSTORE PUSH1 0x24 PUSH1 0x0 REVERT JUMPDEST POP SWAP2 SWAP1 POP JUMP JUMPDEST PUSH1 0x0 DUP3 PUSH1 0x1F DUP4 ADD SLT PUSH2 0x907 JUMPI PUSH1 0x0 DUP1 REVERT JUMPDEST DUP2 MLOAD PUSH2 0x915 PUSH2 0x7C8 DUP3 PUSH2 0x747 JUMP JUMPDEST DUP2 DUP2 MSTORE DUP5 PUSH1 0x20 DUP4 DUP7 ADD ADD GT ISZERO PUSH2 0x92A JUMPI PUSH1 0x0 DUP1 REVERT JUMPDEST PUSH2 0x93B DUP3 PUSH1 0x20 DUP4 ADD PUSH1 0x20 DUP8 ADD PUSH2 0x679 JUMP JUMPDEST SWAP5 SWAP4 POP POP POP POP JUMP JUMPDEST PUSH1 0x0 DUP1 PUSH1 0x0 DUP1 PUSH1 0x0 PUSH1 0xA0 DUP7 DUP9 SUB SLT ISZERO PUSH2 0x95B JUMPI PUSH1 0x0 DUP1 REVERT JUMPDEST DUP6 MLOAD PUSH8 0xFFFFFFFFFFFFFFFF DUP1 DUP3 GT ISZERO PUSH2 0x973 JUMPI PUSH1 0x0 DUP1 REVERT JUMPDEST PUSH2 0x97F DUP10 DUP4 DUP11 ADD PUSH2 0x8F6 JUMP JUMPDEST SWAP7 POP PUSH1 0x20 DUP9 ADD MLOAD SWAP6 POP PUSH1 0x40 DUP9 ADD MLOAD SWAP2 POP PUSH2 0x998 DUP3 PUSH2 0x635 JUMP JUMPDEST PUSH1 0x60 DUP9 ADD MLOAD SWAP2 SWAP5 POP DUP1 DUP3 GT ISZERO PUSH2 0x9AD JUMPI PUSH1 0x0 DUP1 REVERT JUMPDEST POP PUSH2 0x9BA DUP9 DUP3 DUP10 ADD PUSH2 0x8F6 JUMP JUMPDEST SWAP3 POP POP PUSH1 0x80 DUP7 ADD MLOAD PUSH1 0x3 DUP2 LT PUSH2 0x9CF JUMPI PUSH1 0x0 DUP1 REVERT JUMPDEST DUP1 SWAP2 POP POP SWAP3 SWAP6 POP SWAP3 SWAP6 SWAP1 SWAP4 POP JUMP JUMPDEST PUSH1 0x1F DUP3 GT ISZERO PUSH2 0xA27 JUMPI PUSH1 0x0 DUP2 DUP2 MSTORE PUSH1 0x20 DUP2 KECCAK256 PUSH1 0x1F DUP6 ADD PUSH1 0x5 SHR DUP2 ADD PUSH1 0x20 DUP7 LT ISZERO PUSH2 0xA04 JUMPI POP DUP1 JUMPDEST PUSH1 0x1F DUP6 ADD PUSH1 0x5 SHR DUP3 ADD SWAP2 POP JUMPDEST DUP2 DUP2 LT ISZERO PUSH2 0xA23 JUMPI DUP3 DUP2 SSTORE PUSH1 0x1 ADD PUSH2 0xA10 JUMP JUMPDEST POP POP POP JUMPDEST POP POP POP JUMP JUMPDEST DUP2 MLOAD PUSH8 0xFFFFFFFFFFFFFFFF DUP2 GT ISZERO PUSH2 0xA46 JUMPI PUSH2 0xA46 PUSH2 0x700 JUMP JUMPDEST PUSH2 0xA5A DUP2 PUSH2 0xA54 DUP5 SLOAD PUSH2 0x8BC JUMP JUMPDEST DUP5 PUSH2 0x9DD JUMP JUMPDEST PUSH1 0x20 DUP1 PUSH1 0x1F DUP4 GT PUSH1 0x1 DUP2 EQ PUSH2 0xA8F JUMPI PUSH1 0x0 DUP5 ISZERO PUSH2 0xA77 JUMPI POP DUP6 DUP4 ADD MLOAD JUMPDEST PUSH1 0x0 NOT PUSH1 0x3 DUP7 SWAP1 SHL SHR NOT AND PUSH1 0x1 DUP6 SWAP1 SHL OR DUP6 SSTORE PUSH2 0xA23 JUMP JUMPDEST PUSH1 0x0 DUP6 DUP2 MSTORE PUSH1 0x20 DUP2 KECCAK256 PUSH1 0x1F NOT DUP7 AND SWAP2 JUMPDEST DUP3 DUP2 LT ISZERO PUSH2 0xABE JUMPI DUP9 DUP7 ADD MLOAD DUP3 SSTORE SWAP5 DUP5 ADD SWAP5 PUSH1 0x1 SWAP1 SWAP2 ADD SWAP1 DUP5 ADD PUSH2 0xA9F JUMP JUMPDEST POP DUP6 DUP3 LT ISZERO PUSH2 0xADC JUMPI DUP8 DUP6 ADD MLOAD PUSH1 0x0 NOT PUSH1 0x3 DUP9 SWAP1 SHL PUSH1 0xF8 AND SHR NOT AND DUP2 SSTORE JUMPDEST POP POP POP POP POP PUSH1 0x1 SWAP1 DUP2 SHL ADD SWAP1 SSTORE POP JUMP JUMPDEST PUSH4 0x4E487B71 PUSH1 0xE0 SHL PUSH1 0x0 MSTORE PUSH1 0x11 PUSH1 0x4 MSTORE PUSH1 0x24 PUSH1 0x0 REVERT JUMPDEST DUP1 DUP3 ADD DUP1 DUP3 GT ISZERO PUSH2 0xB15 JUMPI PUSH2 0xB15 PUSH2 0xAEC JUMP JUMPDEST SWAP3 SWAP2 POP POP JUMP JUMPDEST PUSH1 0x40 DUP2 MSTORE PUSH1 0x0 PUSH2 0xB2E PUSH1 0x40 DUP4 ADD DUP6 PUSH2 0x69D JUMP JUMPDEST SWAP1 POP DUP3 PUSH1 0x20 DUP4 ADD MSTORE SWAP4 SWAP3 POP POP POP JUMP JUMPDEST PUSH1 0x0 PUSH1 0x20 DUP3 DUP5 SUB SLT ISZERO PUSH2 0xB4F JUMPI PUSH1 0x0 DUP1 REVERT JUMPDEST POP MLOAD SWAP2 SWAP1 POP JUMP JUMPDEST PUSH1 0x0 DUP1 PUSH1 0x0 DUP1 PUSH1 0x80 DUP6 DUP8 SUB SLT ISZERO PUSH2 0xB6C JUMPI PUSH1 0x0 DUP1 REVERT JUMPDEST DUP5 MLOAD PUSH8 0xFFFFFFFFFFFFFFFF DUP1 DUP3 GT ISZERO PUSH2 0xB84 JUMPI PUSH1 0x0 DUP1 REVERT JUMPDEST PUSH2 0xB90 DUP9 DUP4 DUP10 ADD PUSH2 0x8F6 JUMP JUMPDEST SWAP6 POP PUSH1 0x20 DUP8 ADD MLOAD SWAP2 POP DUP1 DUP3 GT ISZERO PUSH2 0xBA6 JUMPI PUSH1 0x0 DUP1 REVERT JUMPDEST POP PUSH2 0xBB3 DUP8 DUP3 DUP9 ADD PUSH2 0x8F6 JUMP JUMPDEST SWAP4 POP POP PUSH1 0x40 DUP6 ADD MLOAD PUSH2 0xBC4 DUP2 PUSH2 0x635 JUMP JUMPDEST PUSH1 0x60 SWAP6 SWAP1 SWAP6 ADD MLOAD SWAP4 SWAP7 SWAP3 SWAP6 POP POP POP JUMP JUMPDEST PUSH1 0x0 DUP3 MLOAD PUSH2 0xBE6 DUP2 DUP5 PUSH1 0x20 DUP8 ADD PUSH2 0x679 JUMP JUMPDEST SWAP2 SWAP1 SWAP2 ADD SWAP3 SWAP2 POP POP JUMP JUMPDEST PUSH1 0x0 PUSH1 0x1 DUP3 ADD PUSH2 0xC02 JUMPI PUSH2 0xC02 PUSH2 0xAEC JUMP JUMPDEST POP PUSH1 0x1 ADD SWAP1 JUMP INVALID LOG2 PUSH5 0x6970667358 0x22 SLT KECCAK256 SWAP13 LOG0 EXTCODESIZE 0xA6 PUSH29 0x60C5B5E72E64A7EEFD9AD3B70FB2748D3D236C6293A65F90B713FB6473 PUSH16 0x6C634300081400330000000000000000 "},"methodIdentifiers":{"certificates(address,uint256)":"46f3141c","courseManager()":"4b4f710a","getCertificates(address)":"f1c49c62","issueCertificate(address,string)":"bb721aab","registry()":"7b103999"}}}}}