{
  "_format": "hh-sol-artifact-1",
  "contractName": "StudentRegistry",
  "sourceName": "contracts/StudentRegistry.sol",
  "abi": [
    {
      "anonymous": false,
      "inputs": [
        {
          "indexed": true,
          "internalType": "address",
          "name": "student",
          "type": "address"
        },
        {
          "indexed": false,
          "internalType": "string",
          "name": "oldCourse",
          "type": "string"
        },
        {
          "indexed": false,
          "internalType": "string",
          "name": "newCourse",
          "type": "string"
        }
      ],
      "name": "CourseUpdated",
      "type": "event"
    },
    {
      "anonymous": false,
      "inputs": [
        {
          "indexed": true,
          "internalType": "address",
          "name": "oldOwner",
          "type": "address"
        },
        {
          "indexed": true,
          "internalType": "address",
          "name": "newOwner",
          "type": "address"
        }
      ],
      "name": "OwnershipTransferred",
      "type": "event"
    },
    {
      "anonymous": false,
      "inputs": [
        {
          "indexed": true,
          "internalType": "address",
          "name": "student",
          "type": "address"
        },
        {
          "indexed": false,
          "internalType": "string",
          "name": "name",
          "type": "string"
        },
        {
          "indexed": false,
          "internalType": "uint256",
          "name": "age",
          "type": "uint256"
        },
        {
          "indexed": false,
          "internalType": "string",
          "name": "course",
          "type": "string"
        },
        {
          "indexed": false,
          "internalType": "enum StudentRegistry.Level",
          "name": "level",
          "type": "uint8"
        }
      ],
      "name": "StudentRegistered",
      "type": "event"
    },
    {
      "inputs": [],
      "name": "getAllStudents",
      "outputs": [
        {
          "components": [
            {
              "internalType": "string",
              "name": "name",
              "type": "string"
            },
            {
              "internalType": "uint256",
              "name": "age",
              "type": "uint256"
            },
            {
              "internalType": "address",
              "name": "ethereumAddress",
              "type": "address"
            },
            {
              "internalType": "string",
              "name": "course",
              "type": "string"
            },
            {
              "internalType": "enum StudentRegistry.Level",
              "name": "level",
              "type": "uint8"
            }
          ],
          "internalType": "struct StudentRegistry.Student[]",
          "name": "",
          "type": "tuple[]"
        }
      ],
      "stateMutability": "view",
      "type": "function"
    },
    {
      "inputs": [],
      "name": "getOwner",
      "outputs": [
        {
          "internalType": "address",
          "name": "",
          "type": "address"
        }
      ],
      "stateMutability": "view",
      "type": "function"
    },
    {
      "inputs": [
        {
          "internalType": "address",
          "name": "studentAddr",
          "type": "address"
        }
      ],
      "name": "getStudent",
      "outputs": [
        {
          "internalType": "string",
          "name": "name",
          "type": "string"
        },
        {
          "internalType": "uint256",
          "name": "age",
          "type": "uint256"
        },
        {
          "internalType": "address",
          "name": "ethAddress",
          "type": "address"
        },
        {
          "internalType": "string",
          "name": "course",
          "type": "string"
        },
        {
          "internalType": "enum StudentRegistry.Level",
          "name": "level",
          "type": "uint8"
        }
      ],
      "stateMutability": "view",
      "type": "function"
    },
    {
      "inputs": [
        {
          "internalType": "string",
          "name": "name",
          "type": "string"
        },
        {
          "internalType": "uint256",
          "name": "age",
          "type": "uint256"
        },
        {
          "internalType": "string",
          "name": "course",
          "type": "string"
        },
        {
          "internalType": "enum StudentRegistry.Level",
          "name": "level",
          "type": "uint8"
        }
      ],
      "name": "registerStudent",
      "outputs": [],
      "stateMutability": "nonpayable",
      "type": "function"
    },
    {
      "inputs": [],
      "name": "resetRegistry",
      "outputs": [],
      "stateMutability": "nonpayable",
      "type": "function"
    },
    {
      "inputs": [
        {
          "internalType": "address",
          "name": "newOwner",
          "type": "address"
        }
      ],
      "name": "transferOwnership",
      "outputs": [],
      "stateMutability": "nonpayable",
      "type": "function"
    },
    {
      "inputs": [
        {
          "internalType": "address",
          "name": "studentAddr",
          "type": "address"
        },
        {
          "internalType": "string",
          "name": "newCourse",
          "type": "string"
        }
      ],
      "name": "updateCourse",
      "outputs": [],
      "stateMutability": "nonpayable",
      "type": "function"
    }
  ],
  "bytecode": "0x608060405234801561001057600080fd5b50600080546001600160a01b0319163390811782556040519091907f8be0079c531659141344cd1fd0a4f28419497f9722a3daafe3b4186f6b6457e0908290a36112bf8061005f6000396000f3fe608060405234801561001057600080fd5b506004361061007d5760003560e01c8063893d20e81161005b578063893d20e8146100d7578063e9e30927146100f2578063f2fde38b14610107578063f74a71df1461011a57600080fd5b80631dcccebe146100825780634a1c0ae1146100975780636b7b44d7146100aa575b600080fd5b610095610090366004610dfb565b610122565b005b6100956100a5366004610e9b565b61039d565b6100bd6100b8366004610ee9565b610761565b6040516100ce959493929190610f89565b60405180910390f35b6000546040516001600160a01b0390911681526020016100ce565b6100fa61098b565b6040516100ce9190610fde565b610095610115366004610ee9565b610b62565b610095610c3f565b600a83101561016c5760405162461bcd60e51b81526020600482015260116024820152700416765206d757374206265203e3d20313607c1b60448201526064015b60405180910390fd5b33600090815260026020819052604090912001546001600160a01b0316156101cb5760405162461bcd60e51b8152602060048201526012602482015271105b1c9958591e481c9959da5cdd195c995960721b6044820152606401610163565b60006040518060a00160405280868152602001858152602001336001600160a01b0316815260200184815260200183600281111561020b5761020b610f51565b90526001805480820182556000919091528151919250829160059091027fb10e2d527612073b26eecdfd717e6a320cf44b4afac2b0732d9fcbe2b7fa0cf6019081906102579082611123565b506020820151600182015560408201516002820180546001600160a01b0319166001600160a01b039092169190911790556060820151600382019061029c9082611123565b50608082015160048201805460ff191660018360028111156102c0576102c0610f51565b021790555050336000908152600260205260409020825183925081906102e69082611123565b506020820151600182015560408201516002820180546001600160a01b0319166001600160a01b039092169190911790556060820151600382019061032b9082611123565b50608082015160048201805460ff1916600183600281111561034f5761034f610f51565b0217905550506040513391507f9fd064143a27b8b7011f982f9dc62096b49b8d2626211b281659e118385916d59061038e9088908890889088906111e3565b60405180910390a25050505050565b6001600160a01b03821633146103f55760405162461bcd60e51b815260206004820152601b60248201527f4f6e6c79207468652073747564656e742063616e2075706461746500000000006044820152606401610163565b6001600160a01b038216600090815260026020526040808220815160a081019092528054829082906104269061109a565b80601f01602080910402602001604051908101604052809291908181526020018280546104529061109a565b801561049f5780601f106104745761010080835404028352916020019161049f565b820191906000526020600020905b81548152906001019060200180831161048257829003601f168201915b50505091835250506001820154602082015260028201546001600160a01b031660408201526003820180546060909201916104d99061109a565b80601f01602080910402602001604051908101604052809291908181526020018280546105059061109a565b80156105525780601f1061052757610100808354040283529160200191610552565b820191906000526020600020905b81548152906001019060200180831161053557829003601f168201915b5050509183525050600482015460209091019060ff16600281111561057957610579610f51565b600281111561058a5761058a610f51565b90525060408101519091506001600160a01b03166105de5760405162461bcd60e51b815260206004820152601160248201527014dd1d59195b9d081b9bdd08199bdd5b99607a1b6044820152606401610163565b606081018051908390526001600160a01b0384166000908152600260205260409020825183919081906106119082611123565b506020820151600182015560408201516002820180546001600160a01b0319166001600160a01b03909216919091179055606082015160038201906106569082611123565b50608082015160048201805460ff1916600183600281111561067a5761067a610f51565b021790555090505060005b60015481101561071757846001600160a01b0316600182815481106106ac576106ac611227565b60009182526020909120600260059092020101546001600160a01b0316036107055783600182815481106106e2576106e2611227565b906000526020600020906005020160030190816106ff9190611123565b50610717565b8061070f8161123d565b915050610685565b50836001600160a01b03167fcc68c35717b59611c5c50d654adbe44323eef705d1b75b7ae605a4d29acff3868285604051610753929190611264565b60405180910390a250505050565b6060600080606060008060026000886001600160a01b03166001600160a01b031681526020019081526020016000206040518060a00160405290816000820180546107ab9061109a565b80601f01602080910402602001604051908101604052809291908181526020018280546107d79061109a565b80156108245780601f106107f957610100808354040283529160200191610824565b820191906000526020600020905b81548152906001019060200180831161080757829003601f168201915b50505091835250506001820154602082015260028201546001600160a01b0316604082015260038201805460609092019161085e9061109a565b80601f016020809104026020016040519081016040528092919081815260200182805461088a9061109a565b80156108d75780601f106108ac576101008083540402835291602001916108d7565b820191906000526020600020905b8154815290600101906020018083116108ba57829003601f168201915b5050509183525050600482015460209091019060ff1660028111156108fe576108fe610f51565b600281111561090f5761090f610f51565b90525060408101519091506001600160a01b03166109635760405162461bcd60e51b815260206004820152601160248201527014dd1d59195b9d081b9bdd08199bdd5b99607a1b6044820152606401610163565b8051602082015160408301516060840151608090940151929a91995097509195509350915050565b60606001805480602002602001604051908101604052809291908181526020016000905b82821015610b5957838290600052602060002090600502016040518060a00160405290816000820180546109e29061109a565b80601f0160208091040260200160405190810160405280929190818152602001828054610a0e9061109a565b8015610a5b5780601f10610a3057610100808354040283529160200191610a5b565b820191906000526020600020905b815481529060010190602001808311610a3e57829003601f168201915b50505091835250506001820154602082015260028201546001600160a01b03166040820152600382018054606090920191610a959061109a565b80601f0160208091040260200160405190810160405280929190818152602001828054610ac19061109a565b8015610b0e5780601f10610ae357610100808354040283529160200191610b0e565b820191906000526020600020905b815481529060010190602001808311610af157829003601f168201915b5050509183525050600482015460209091019060ff166002811115610b3557610b35610f51565b6002811115610b4657610b46610f51565b81525050815260200190600101906109af565b50505050905090565b6000546001600160a01b03163314610ba95760405162461bcd60e51b815260206004820152600a60248201526927b7363c9037bbb732b960b11b6044820152606401610163565b6001600160a01b038116610bef5760405162461bcd60e51b815260206004820152600d60248201526c24b73b30b634b21037bbb732b960991b6044820152606401610163565b600080546001600160a01b038381166001600160a01b0319831681178455604051919092169283917f8be0079c531659141344cd1fd0a4f28419497f9722a3daafe3b4186f6b6457e09190a35050565b6000546001600160a01b03163314610c865760405162461bcd60e51b815260206004820152600a60248201526927b7363c9037bbb732b960b11b6044820152606401610163565b610c9260016000610c94565b565b5080546000825560050290600052602060002090810190610cb59190610cb8565b50565b80821115610d0a576000610ccc8282610d0e565b6000600183018190556002830180546001600160a01b0319169055610cf5906003840190610d0e565b5060048101805460ff19169055600501610cb8565b5090565b508054610d1a9061109a565b6000825580601f10610d2a575050565b601f016020900490600052602060002090810190610cb591905b80821115610d0a5760008155600101610d44565b634e487b7160e01b600052604160045260246000fd5b600082601f830112610d7f57600080fd5b813567ffffffffffffffff80821115610d9a57610d9a610d58565b604051601f8301601f19908116603f01168101908282118183101715610dc257610dc2610d58565b81604052838152866020858801011115610ddb57600080fd5b836020870160208301376000602085830101528094505050505092915050565b60008060008060808587031215610e1157600080fd5b843567ffffffffffffffff80821115610e2957600080fd5b610e3588838901610d6e565b9550602087013594506040870135915080821115610e5257600080fd5b50610e5f87828801610d6e565b925050606085013560038110610e7457600080fd5b939692955090935050565b80356001600160a01b0381168114610e9657600080fd5b919050565b60008060408385031215610eae57600080fd5b610eb783610e7f565b9150602083013567ffffffffffffffff811115610ed357600080fd5b610edf85828601610d6e565b9150509250929050565b600060208284031215610efb57600080fd5b610f0482610e7f565b9392505050565b6000815180845260005b81811015610f3157602081850181015186830182015201610f15565b506000602082860101526020601f19601f83011685010191505092915050565b634e487b7160e01b600052602160045260246000fd5b60038110610f8557634e487b7160e01b600052602160045260246000fd5b9052565b60a081526000610f9c60a0830188610f0b565b602083018790526001600160a01b03861660408401528281036060840152610fc48186610f0b565b915050610fd46080830184610f67565b9695505050505050565b60006020808301818452808551808352604092508286019150828160051b87010184880160005b8381101561108c57603f19898403018552815160a0815181865261102b82870182610f0b565b838b0151878c0152898401516001600160a01b03168a880152606080850151888303828a015291935091506110608382610f0b565b92505050608080830151925061107881870184610f67565b509588019593505090860190600101611005565b509098975050505050505050565b600181811c908216806110ae57607f821691505b6020821081036110ce57634e487b7160e01b600052602260045260246000fd5b50919050565b601f82111561111e57600081815260208120601f850160051c810160208610156110fb5750805b601f850160051c820191505b8181101561111a57828155600101611107565b5050505b505050565b815167ffffffffffffffff81111561113d5761113d610d58565b6111518161114b845461109a565b846110d4565b602080601f831160018114611186576000841561116e5750858301515b600019600386901b1c1916600185901b17855561111a565b600085815260208120601f198616915b828110156111b557888601518255948401946001909101908401611196565b50858210156111d35787850151600019600388901b60f8161c191681555b5050505050600190811b01905550565b6080815260006111f66080830187610f0b565b856020840152828103604084015261120e8186610f0b565b91505061121e6060830184610f67565b95945050505050565b634e487b7160e01b600052603260045260246000fd5b60006001820161125d57634e487b7160e01b600052601160045260246000fd5b5060010190565b6040815260006112776040830185610f0b565b828103602084015261121e8185610f0b56fea2646970667358221220986c44b9ef3cac1eba471231d2671d8e1efbdba78af9c3410f004c887c6de98a64736f6c63430008140033",
  "linkReferences": {},
  "deployedLinkReferences": {}
}