{
  "_format": "hh-sol-artifact-1",
  "contractName": "Certificate",
  "sourceName": "contracts/Certificate.sol",
  "abi": [
    {
      "inputs": [
        {
          "internalType": "address",
          "name": "registryAddress",
          "type": "address"
        },
        {
          "internalType": "address",
          "name": "courseManagerAddress",
          "type": "address"
        }
      ],
      "stateMutability": "nonpayable",
      "type": "constructor"
    },
    {
      "anonymous": false,
      "inputs": [
        {
          "indexed": true,
          "internalType": "address",
          "name": "student",
          "type": "address"
        },
        {
          "indexed": false,
          "internalType": "string",
          "name": "courseTitle",
          "type": "string"
        },
        {
          "indexed": false,
          "internalType": "uint256",
          "name": "date",
          "type": "uint256"
        }
      ],
      "name": "CertificateIssued",
      "type": "event"
    },
    {
      "inputs": [
        {
          "internalType": "address",
          "name": "",
          "type": "address"
        },
        {
          "internalType": "uint256",
          "name": "",
          "type": "uint256"
        }
      ],
      "name": "certificates",
      "outputs": [
        {
          "internalType": "address",
          "name": "student",
          "type": "address"
        },
        {
          "internalType": "string",
          "name": "courseTitle",
          "type": "string"
        },
        {
          "internalType": "uint256",
          "name": "issueDate",
          "type": "uint256"
        },
        {
          "internalType": "uint256",
          "name": "certificateId",
          "type": "uint256"
        }
      ],
      "stateMutability": "view",
      "type": "function"
    },
    {
      "inputs": [],
      "name": "courseManager",
      "outputs": [
        {
          "internalType": "contract CourseManager",
          "name": "",
          "type": "address"
        }
      ],
      "stateMutability": "view",
      "type": "function"
    },
    {
      "inputs": [
        {
          "internalType": "address",
          "name": "student",
          "type": "address"
        }
      ],
      "name": "getCertificates",
      "outputs": [
        {
          "components": [
            {
              "internalType": "address",
              "name": "student",
              "type": "address"
            },
            {
              "internalType": "string",
              "name": "courseTitle",
              "type": "string"
            },
            {
              "internalType": "uint256",
              "name": "issueDate",
              "type": "uint256"
            },
            {
              "internalType": "uint256",
              "name": "certificateId",
              "type": "uint256"
            }
          ],
          "internalType": "struct Certificate.CertificateData[]",
          "name": "",
          "type": "tuple[]"
        }
      ],
      "stateMutability": "view",
      "type": "function"
    },
    {
      "inputs": [
        {
          "internalType": "address",
          "name": "studentAddr",
          "type": "address"
        },
        {
          "internalType": "string",
          "name": "courseTitle",
          "type": "string"
        }
      ],
      "name": "issueCertificate",
      "outputs": [],
      "stateMutability": "nonpayable",
      "type": "function"
    },
    {
      "inputs": [],
      "name": "registry",
      "outputs": [
        {
          "internalType": "contract StudentRegistry",
          "name": "",
          "type": "address"
        }
      ],
      "stateMutability": "view",
      "type": "function"
    }
  ],
  "bytecode": "0x608060405234801561001057600080fd5b50604051610d00380380610d0083398101604081905261002f9161007f565b600080546001600160a01b039384166001600160a01b031991821617909155600180549290931691161781556003556100b2565b80516001600160a01b038116811461007a57600080fd5b919050565b6000806040838503121561009257600080fd5b61009b83610063565b91506100a960208401610063565b90509250929050565b610c3f806100c16000396000f3fe608060405234801561001057600080fd5b50600436106100575760003560e01c806346f3141c1461005c5780634b4f710a146100885780637b103999146100b3578063bb721aab146100c6578063f1c49c62146100db575b600080fd5b61006f61006a36600461064d565b6100fb565b60405161007f94939291906106c9565b60405180910390f35b60015461009b906001600160a01b031681565b6040516001600160a01b03909116815260200161007f565b60005461009b906001600160a01b031681565b6100d96100d436600461076f565b6101d7565b005b6100ee6100e9366004610802565b61038b565b60405161007f9190610826565b6002602052816000526040600020818154811061011757600080fd5b6000918252602090912060049091020180546001820180546001600160a01b039092169450919250610148906108bc565b80601f0160208091040260200160405190810160405280929190818152602001828054610174906108bc565b80156101c15780601f10610196576101008083540402835291602001916101c1565b820191906000526020600020905b8154815290600101906020018083116101a457829003601f168201915b5050505050908060020154908060030154905084565b600054604051636b7b44d760e01b81526001600160a01b03848116600483015290911690636b7b44d790602401600060405180830381865afa158015610221573d6000803e3d6000fd5b505050506040513d6000823e601f3d908101601f191682016040526102499190810190610943565b5050505050610257816104bc565b61029a5760405162461bcd60e51b815260206004820152601060248201526f10dbdd5c9cd9481b9bdd08199bdd5b9960821b604482015260640160405180910390fd5b604080516080810182526001600160a01b0384811680835260208084018681524285870152600354606086015260009283526002825294822080546001808201835591845291909220845160049092020180546001600160a01b03191691909316178255925191928392908201906103129082610a2c565b506040820151816002015560608201518160030155505060016003600082825461033c9190610b02565b92505081905550826001600160a01b03167f7cfe81bfb9e8d3dcb7ad648448aa616885521676a3e99ed538a415d60e19a479834260405161037e929190610b1b565b60405180910390a2505050565b6001600160a01b0381166000908152600260209081526040808320805482518185028101850190935280835260609492939192909184015b828210156104b157600084815260209081902060408051608081019091526004850290910180546001600160a01b03168252600181018054929391929184019161040c906108bc565b80601f0160208091040260200160405190810160405280929190818152602001828054610438906108bc565b80156104855780601f1061045a57610100808354040283529160200191610485565b820191906000526020600020905b81548152906001019060200180831161046857829003601f168201915b5050505050815260200160028201548152602001600382015481525050815260200190600101906103c3565b505050509050919050565b600080600160009054906101000a90046001600160a01b03166001600160a01b031663042799886040518163ffffffff1660e01b8152600401602060405180830381865afa158015610512573d6000803e3d6000fd5b505050506040513d601f19601f820116820180604052508101906105369190610b3d565b905060005b8181101561062b57600154604051630b91e28d60e01b8152600481018390526000916001600160a01b031690630b91e28d90602401600060405180830381865afa15801561058d573d6000803e3d6000fd5b505050506040513d6000823e601f3d908101601f191682016040526105b59190810190610b56565b5050509050846040516020016105cb9190610bd4565b60405160208183030381529060405280519060200120816040516020016105f29190610bd4565b604051602081830303815290604052805190602001200361061857506001949350505050565b508061062381610bf0565b91505061053b565b5060009392505050565b6001600160a01b038116811461064a57600080fd5b50565b6000806040838503121561066057600080fd5b823561066b81610635565b946020939093013593505050565b60005b8381101561069457818101518382015260200161067c565b50506000910152565b600081518084526106b5816020860160208601610679565b601f01601f19169290920160200192915050565b6001600160a01b03851681526080602082018190526000906106ed9083018661069d565b6040830194909452506060015292915050565b634e487b7160e01b600052604160045260246000fd5b604051601f8201601f1916810167ffffffffffffffff8111828210171561073f5761073f610700565b604052919050565b600067ffffffffffffffff82111561076157610761610700565b50601f01601f191660200190565b6000806040838503121561078257600080fd5b823561078d81610635565b9150602083013567ffffffffffffffff8111156107a957600080fd5b8301601f810185136107ba57600080fd5b80356107cd6107c882610747565b610716565b8181528660208385010111156107e257600080fd5b816020840160208301376000602083830101528093505050509250929050565b60006020828403121561081457600080fd5b813561081f81610635565b9392505050565b60006020808301818452808551808352604092508286019150828160051b87010184880160005b838110156108ae57888303603f19018552815180516001600160a01b03168452878101516080898601819052906108868287018261069d565b838a0151878b015260609384015193909601929092525050938601939086019060010161084d565b509098975050505050505050565b600181811c908216806108d057607f821691505b6020821081036108f057634e487b7160e01b600052602260045260246000fd5b50919050565b600082601f83011261090757600080fd5b81516109156107c882610747565b81815284602083860101111561092a57600080fd5b61093b826020830160208701610679565b949350505050565b600080600080600060a0868803121561095b57600080fd5b855167ffffffffffffffff8082111561097357600080fd5b61097f89838a016108f6565b9650602088015195506040880151915061099882610635565b6060880151919450808211156109ad57600080fd5b506109ba888289016108f6565b9250506080860151600381106109cf57600080fd5b809150509295509295909350565b601f821115610a2757600081815260208120601f850160051c81016020861015610a045750805b601f850160051c820191505b81811015610a2357828155600101610a10565b5050505b505050565b815167ffffffffffffffff811115610a4657610a46610700565b610a5a81610a5484546108bc565b846109dd565b602080601f831160018114610a8f5760008415610a775750858301515b600019600386901b1c1916600185901b178555610a23565b600085815260208120601f198616915b82811015610abe57888601518255948401946001909101908401610a9f565b5085821015610adc5787850151600019600388901b60f8161c191681555b5050505050600190811b01905550565b634e487b7160e01b600052601160045260246000fd5b80820180821115610b1557610b15610aec565b92915050565b604081526000610b2e604083018561069d565b90508260208301529392505050565b600060208284031215610b4f57600080fd5b5051919050565b60008060008060808587031215610b6c57600080fd5b845167ffffffffffffffff80821115610b8457600080fd5b610b90888389016108f6565b95506020870151915080821115610ba657600080fd5b50610bb3878288016108f6565b9350506040850151610bc481610635565b6060959095015193969295505050565b60008251610be6818460208701610679565b9190910192915050565b600060018201610c0257610c02610aec565b506001019056fea26469706673582212209ca03ba67c60c5b5e72e64a7eefd9ad3b70fb2748d3d236c6293a65f90b713fb64736f6c63430008140033",
  "linkReferences": {},
  "deployedLinkReferences": {}
}