{
  "_format": "hh-sol-artifact-1",
  "contractName": "CourseManager",
  "sourceName": "contracts/CourseManager.sol",
  "abi": [
    {
      "inputs": [
        {
          "internalType": "address",
          "name": "registryAddress",
          "type": "address"
        }
      ],
      "stateMutability": "nonpayable",
      "type": "constructor"
    },
    {
      "anonymous": false,
      "inputs": [
        {
          "indexed": true,
          "internalType": "uint256",
          "name": "courseId",
          "type": "uint256"
        },
        {
          "indexed": false,
          "internalType": "string",
          "name": "title",
          "type": "string"
        },
        {
          "indexed": true,
          "internalType": "address",
          "name": "instructor",
          "type": "address"
        },
        {
          "indexed": false,
          "internalType": "uint256",
          "name": "price",
          "type": "uint256"
        }
      ],
      "name": "CourseCreated",
      "type": "event"
    },
    {
      "anonymous": false,
      "inputs": [
        {
          "indexed": true,
          "internalType": "uint256",
          "name": "courseId",
          "type": "uint256"
        },
        {
          "indexed": true,
          "internalType": "address",
          "name": "student",
          "type": "address"
        }
      ],
      "name": "CourseEnrolled",
      "type": "event"
    },
    {
      "anonymous": false,
      "inputs": [
        {
          "indexed": true,
          "internalType": "address",
          "name": "oldOwner",
          "type": "address"
        },
        {
          "indexed": true,
          "internalType": "address",
          "name": "newOwner",
          "type": "address"
        }
      ],
      "name": "OwnershipTransferred",
      "type": "event"
    },
    {
      "inputs": [],
      "name": "coursesCount",
      "outputs": [
        {
          "internalType": "uint256",
          "name": "",
          "type": "uint256"
        }
      ],
      "stateMutability": "view",
      "type": "function"
    },
    {
      "inputs": [
        {
          "internalType": "string",
          "name": "title",
          "type": "string"
        },
        {
          "internalType": "string",
          "name": "desc",
          "type": "string"
        },
        {
          "internalType": "uint256",
          "name": "price",
          "type": "uint256"
        }
      ],
      "name": "createCourse",
      "outputs": [],
      "stateMutability": "nonpayable",
      "type": "function"
    },
    {
      "inputs": [
        {
          "internalType": "uint256",
          "name": "courseId",
          "type": "uint256"
        }
      ],
      "name": "enrollInCourse",
      "outputs": [],
      "stateMutability": "payable",
      "type": "function"
    },
    {
      "inputs": [],
      "name": "getAllCourses",
      "outputs": [
        {
          "components": [
            {
              "internalType": "string",
              "name": "title",
              "type": "string"
            },
            {
              "internalType": "string",
              "name": "description",
              "type": "string"
            },
            {
              "internalType": "address",
              "name": "instructor",
              "type": "address"
            },
            {
              "internalType": "uint256",
              "name": "price",
              "type": "uint256"
            }
          ],
          "internalType": "struct CourseManager.Course[]",
          "name": "",
          "type": "tuple[]"
        }
      ],
      "stateMutability": "view",
      "type": "function"
    },
    {
      "inputs": [
        {
          "internalType": "uint256",
          "name": "courseId",
          "type": "uint256"
        }
      ],
      "name": "getCourse",
      "outputs": [
        {
          "internalType": "string",
          "name": "",
          "type": "string"
        },
        {
          "internalType": "string",
          "name": "",
          "type": "string"
        },
        {
          "internalType": "address",
          "name": "",
          "type": "address"
        },
        {
          "internalType": "uint256",
          "name": "",
          "type": "uint256"
        }
      ],
      "stateMutability": "view",
      "type": "function"
    },
    {
      "inputs": [],
      "name": "getOwner",
      "outputs": [
        {
          "internalType": "address",
          "name": "",
          "type": "address"
        }
      ],
      "stateMutability": "view",
      "type": "function"
    },
    {
      "inputs": [
        {
          "internalType": "uint256",
          "name": "courseId",
          "type": "uint256"
        },
        {
          "internalType": "address",
          "name": "student",
          "type": "address"
        }
      ],
      "name": "isEnrolled",
      "outputs": [
        {
          "internalType": "bool",
          "name": "",
          "type": "bool"
        }
      ],
      "stateMutability": "view",
      "type": "function"
    },
    {
      "inputs": [],
      "name": "registry",
      "outputs": [
        {
          "internalType": "contract StudentRegistry",
          "name": "",
          "type": "address"
        }
      ],
      "stateMutability": "view",
      "type": "function"
    },
    {
      "inputs": [
        {
          "internalType": "address",
          "name": "newOwner",
          "type": "address"
        }
      ],
      "name": "transferOwnership",
      "outputs": [],
      "stateMutability": "nonpayable",
      "type": "function"
    }
  ],
  "bytecode": "0x608060405234801561001057600080fd5b5060405161117e38038061117e83398101604081905261002f91610093565b600080546001600160a01b0319163390811782556040519091907f8be0079c531659141344cd1fd0a4f28419497f9722a3daafe3b4186f6b6457e0908290a3600180546001600160a01b0319166001600160a01b03929092169190911790556100c3565b6000602082840312156100a557600080fd5b81516001600160a01b03811681146100bc57600080fd5b9392505050565b6110ac806100d26000396000f3fe6080604052600436106100865760003560e01c80637b103999116100595780637b10399914610115578063893d20e81461014d578063a4adb24b1461016b578063c97683151461018b578063f2fde38b146101bb57600080fd5b8063042799881461008b57806304e48bd1146100ae5780630b91e28d146100d05780635e52da2714610100575b600080fd5b34801561009757600080fd5b506002546040519081526020015b60405180910390f35b3480156100ba57600080fd5b506100c36101db565b6040516100a59190610b50565b3480156100dc57600080fd5b506100f06100eb366004610bf4565b610381565b6040516100a59493929190610c0d565b61011361010e366004610bf4565b61056c565b005b34801561012157600080fd5b50600154610135906001600160a01b031681565b6040516001600160a01b0390911681526020016100a5565b34801561015957600080fd5b506000546001600160a01b0316610135565b34801561017757600080fd5b50610113610186366004610d14565b610899565b34801561019757600080fd5b506101ab6101a6366004610d99565b6109e1565b60405190151581526020016100a5565b3480156101c757600080fd5b506101136101d6366004610dc9565b610a23565b60606002805480602002602001604051908101604052809291908181526020016000905b82821015610378578382906000526020600020906004020160405180608001604052908160008201805461023290610ded565b80601f016020809104026020016040519081016040528092919081815260200182805461025e90610ded565b80156102ab5780601f10610280576101008083540402835291602001916102ab565b820191906000526020600020905b81548152906001019060200180831161028e57829003601f168201915b505050505081526020016001820180546102c490610ded565b80601f01602080910402602001604051908101604052809291908181526020018280546102f090610ded565b801561033d5780601f106103125761010080835404028352916020019161033d565b820191906000526020600020905b81548152906001019060200180831161032057829003601f168201915b505050918352505060028201546001600160a01b031660208083019190915260039092015460409091015290825260019290920191016101ff565b50505050905090565b60608060008060028054905085106103d85760405162461bcd60e51b815260206004820152601560248201527410dbdd5c9cd948191bd95cc81b9bdd08195e1a5cdd605a1b60448201526064015b60405180910390fd5b6000600286815481106103ed576103ed610e27565b906000526020600020906004020160405180608001604052908160008201805461041690610ded565b80601f016020809104026020016040519081016040528092919081815260200182805461044290610ded565b801561048f5780601f106104645761010080835404028352916020019161048f565b820191906000526020600020905b81548152906001019060200180831161047257829003601f168201915b505050505081526020016001820180546104a890610ded565b80601f01602080910402602001604051908101604052809291908181526020018280546104d490610ded565b80156105215780601f106104f657610100808354040283529160200191610521565b820191906000526020600020905b81548152906001019060200180831161050457829003601f168201915b505050918352505060028201546001600160a01b0316602080830191909152600390920154604091820152825191830151908301516060909301519199909850919650945092505050565b60025481106105b55760405162461bcd60e51b815260206004820152601560248201527410dbdd5c9cd948191bd95cc81b9bdd08195e1a5cdd605a1b60448201526064016103cf565b600154604051636b7b44d760e01b81523360048201526001600160a01b0390911690636b7b44d790602401600060405180830381865afa1580156105fd573d6000803e3d6000fd5b505050506040513d6000823e601f3d908101601f191682016040526106259190810190610e8a565b505050600083815260036020908152604080832033845290915290205460ff1615915061068990505760405162461bcd60e51b815260206004820152601060248201526f105b1c9958591e48195b9c9bdb1b195960821b60448201526064016103cf565b60006002828154811061069e5761069e610e27565b90600052602060002090600402016040518060800160405290816000820180546106c790610ded565b80601f01602080910402602001604051908101604052809291908181526020018280546106f390610ded565b80156107405780601f1061071557610100808354040283529160200191610740565b820191906000526020600020905b81548152906001019060200180831161072357829003601f168201915b5050505050815260200160018201805461075990610ded565b80601f016020809104026020016040519081016040528092919081815260200182805461078590610ded565b80156107d25780601f106107a7576101008083540402835291602001916107d2565b820191906000526020600020905b8154815290600101906020018083116107b557829003601f168201915b505050918352505060028201546001600160a01b0316602082015260039091015460409091015260608101519091503410156108475760405162461bcd60e51b8152602060048201526014602482015273125b9cdd59999a58da595b9d081c185e5b595b9d60621b60448201526064016103cf565b6000828152600360209081526040808320338085529252808320805460ff1916600117905551909184917fd1a80c70750f3ae815515ec08d02c6202510aa13797609fe270e902cdfd99f039190a35050565b6000546001600160a01b031633146108e05760405162461bcd60e51b815260206004820152600a60248201526927b7363c9037bbb732b960b11b60448201526064016103cf565b604080516080810182528481526020810184905233918101919091526060810182905260028054600181018255600091909152815182916004027f405787fa12a823e0f2b7631cc41b3ba8828b3321ca811111fa75cd3aa3bb5ace019081906109499082610f73565b506020820151600182019061095e9082610f73565b506040820151600282810180546001600160a01b0319166001600160a01b03909316929092179091556060909201516003909101555433906109a290600190611033565b7f48ecb80c764507d9b513e5fbdba76e8b8177d246e4314b2718204d1027f9967386856040516109d3929190611054565b60405180910390a350505050565b60025460009083106109f557506000610a1d565b5060008281526003602090815260408083206001600160a01b038516845290915290205460ff165b92915050565b6000546001600160a01b03163314610a6a5760405162461bcd60e51b815260206004820152600a60248201526927b7363c9037bbb732b960b11b60448201526064016103cf565b6001600160a01b038116610ab05760405162461bcd60e51b815260206004820152600d60248201526c24b73b30b634b21037bbb732b960991b60448201526064016103cf565b600080546001600160a01b038381166001600160a01b0319831681178455604051919092169283917f8be0079c531659141344cd1fd0a4f28419497f9722a3daafe3b4186f6b6457e09190a35050565b60005b83811015610b1b578181015183820152602001610b03565b50506000910152565b60008151808452610b3c816020860160208601610b00565b601f01601f19169290920160200192915050565b60006020808301818452808551808352604092508286019150828160051b87010184880160005b83811015610be657603f19898403018552815160808151818652610b9d82870182610b24565b915050888201518582038a870152610bb58282610b24565b838a01516001600160a01b0316878b0152606093840151939096019290925250509386019390860190600101610b77565b509098975050505050505050565b600060208284031215610c0657600080fd5b5035919050565b608081526000610c206080830187610b24565b8281036020840152610c328187610b24565b6001600160a01b0395909516604084015250506060015292915050565b634e487b7160e01b600052604160045260246000fd5b604051601f8201601f1916810167ffffffffffffffff81118282101715610c8e57610c8e610c4f565b604052919050565b600067ffffffffffffffff821115610cb057610cb0610c4f565b50601f01601f191660200190565b600082601f830112610ccf57600080fd5b8135610ce2610cdd82610c96565b610c65565b818152846020838601011115610cf757600080fd5b816020850160208301376000918101602001919091529392505050565b600080600060608486031215610d2957600080fd5b833567ffffffffffffffff80821115610d4157600080fd5b610d4d87838801610cbe565b94506020860135915080821115610d6357600080fd5b50610d7086828701610cbe565b925050604084013590509250925092565b6001600160a01b0381168114610d9657600080fd5b50565b60008060408385031215610dac57600080fd5b823591506020830135610dbe81610d81565b809150509250929050565b600060208284031215610ddb57600080fd5b8135610de681610d81565b9392505050565b600181811c90821680610e0157607f821691505b602082108103610e2157634e487b7160e01b600052602260045260246000fd5b50919050565b634e487b7160e01b600052603260045260246000fd5b600082601f830112610e4e57600080fd5b8151610e5c610cdd82610c96565b818152846020838601011115610e7157600080fd5b610e82826020830160208701610b00565b949350505050565b600080600080600060a08688031215610ea257600080fd5b855167ffffffffffffffff80821115610eba57600080fd5b610ec689838a01610e3d565b96506020880151955060408801519150610edf82610d81565b606088015191945080821115610ef457600080fd5b50610f0188828901610e3d565b925050608086015160038110610f1657600080fd5b809150509295509295909350565b601f821115610f6e57600081815260208120601f850160051c81016020861015610f4b5750805b601f850160051c820191505b81811015610f6a57828155600101610f57565b5050505b505050565b815167ffffffffffffffff811115610f8d57610f8d610c4f565b610fa181610f9b8454610ded565b84610f24565b602080601f831160018114610fd65760008415610fbe5750858301515b600019600386901b1c1916600185901b178555610f6a565b600085815260208120601f198616915b8281101561100557888601518255948401946001909101908401610fe6565b50858210156110235787850151600019600388901b60f8161c191681555b5050505050600190811b01905550565b81810381811115610a1d57634e487b7160e01b600052601160045260246000fd5b6040815260006110676040830185610b24565b9050826020830152939250505056fea264697066735822122090ae211aa22fca330816439e41627b65d024292a8096d2a780150438b3cb612964736f6c63430008140033",
  "linkReferences": {},
  "deployedLinkReferences": {}
}