{
  "_format": "hh-sol-artifact-1",
  "contractName": "LibraryExample",
  "sourceName": "contracts/LibraryExample.sol",
  "abi": [
    {
      "inputs": [
        {
          "internalType": "string",
          "name": "initialTopic",
          "type": "string"
        }
      ],
      "stateMutability": "nonpayable",
      "type": "constructor"
    },
    {
      "inputs": [],
      "name": "getTopic",
      "outputs": [
        {
          "internalType": "string",
          "name": "",
          "type": "string"
        }
      ],
      "stateMutability": "view",
      "type": "function"
    },
    {
      "inputs": [],
      "name": "getUpperTopic",
      "outputs": [
        {
          "internalType": "string",
          "name": "",
          "type": "string"
        }
      ],
      "stateMutability": "view",
      "type": "function"
    },
    {
      "inputs": [
        {
          "internalType": "string",
          "name": "input",
          "type": "string"
        }
      ],
      "name": "isTopicMatch",
      "outputs": [
        {
          "internalType": "bool",
          "name": "",
          "type": "bool"
        }
      ],
      "stateMutability": "view",
      "type": "function"
    },
    {
      "inputs": [
        {
          "internalType": "string",
          "name": "newTopic",
          "type": "string"
        }
      ],
      "name": "setTopic",
      "outputs": [],
      "stateMutability": "nonpayable",
      "type": "function"
    }
  ],
  "bytecode": "0x608060405234801561001057600080fd5b5060405161091138038061091183398101604081905261002f91610058565b600061003b82826101aa565b5050610269565b634e487b7160e01b600052604160045260246000fd5b6000602080838503121561006b57600080fd5b82516001600160401b038082111561008257600080fd5b818501915085601f83011261009657600080fd5b8151818111156100a8576100a8610042565b604051601f8201601f19908116603f011681019083821181831017156100d0576100d0610042565b8160405282815288868487010111156100e857600080fd5b600093505b8284101561010a57848401860151818501870152928501926100ed565b600086848301015280965050505050505092915050565b600181811c9082168061013557607f821691505b60208210810361015557634e487b7160e01b600052602260045260246000fd5b50919050565b601f8211156101a557600081815260208120601f850160051c810160208610156101825750805b601f850160051c820191505b818110156101a15782815560010161018e565b5050505b505050565b81516001600160401b038111156101c3576101c3610042565b6101d7816101d18454610121565b8461015b565b602080601f83116001811461020c57600084156101f45750858301515b600019600386901b1c1916600185901b1785556101a1565b600085815260208120601f198616915b8281101561023b5788860151825594840194600190910190840161021c565b50858210156102595787850151600019600388901b60f8161c191681555b5050505050600190811b01905550565b610699806102786000396000f3fe608060405234801561001057600080fd5b506004361061004c5760003560e01c80637595aaa6146100515780637bd7f8941461006f57806395066e3314610092578063e4fae0da1461009a575b600080fd5b6100596100af565b60405161006691906103a6565b60405180910390f35b61008261007d3660046103ef565b610149565b6040519015158152602001610066565b6100596101ee565b6100ad6100a83660046103ef565b610280565b005b6060610144600080546100c1906104a0565b80601f01602080910402602001604051908101604052809291908181526020018280546100ed906104a0565b801561013a5780601f1061010f5761010080835404028352916020019161013a565b820191906000526020600020905b81548152906001019060200180831161011d57829003601f168201915b5050505050610290565b905090565b60006101e8826000805461015c906104a0565b80601f0160208091040260200160405190810160405280929190818152602001828054610188906104a0565b80156101d55780601f106101aa576101008083540402835291602001916101d5565b820191906000526020600020905b8154815290600101906020018083116101b857829003601f168201915b505050505061032990919063ffffffff16565b92915050565b6060600080546101fd906104a0565b80601f0160208091040260200160405190810160405280929190818152602001828054610229906104a0565b80156102765780601f1061024b57610100808354040283529160200191610276565b820191906000526020600020905b81548152906001019060200180831161025957829003601f168201915b5050505050905090565b600061028c8282610529565b5050565b60608160005b81518110156103225760008282815181106102b3576102b36105e9565b016020015160f81c9050606181108015906102d25750607a8160ff1611155b1561030f576102e2602082610615565b60f81b8383815181106102f7576102f76105e9565b60200101906001600160f81b031916908160001a9053505b508061031a8161062e565b915050610296565b5092915050565b60008160405160200161033c9190610647565b60405160208183030381529060405280519060200120836040516020016103639190610647565b6040516020818303038152906040528051906020012014905092915050565b60005b8381101561039d578181015183820152602001610385565b50506000910152565b60208152600082518060208401526103c5816040850160208701610382565b601f01601f19169190910160400192915050565b634e487b7160e01b600052604160045260246000fd5b60006020828403121561040157600080fd5b813567ffffffffffffffff8082111561041957600080fd5b818401915084601f83011261042d57600080fd5b81358181111561043f5761043f6103d9565b604051601f8201601f19908116603f01168101908382118183101715610467576104676103d9565b8160405282815287602084870101111561048057600080fd5b826020860160208301376000928101602001929092525095945050505050565b600181811c908216806104b457607f821691505b6020821081036104d457634e487b7160e01b600052602260045260246000fd5b50919050565b601f82111561052457600081815260208120601f850160051c810160208610156105015750805b601f850160051c820191505b818110156105205782815560010161050d565b5050505b505050565b815167ffffffffffffffff811115610543576105436103d9565b6105578161055184546104a0565b846104da565b602080601f83116001811461058c57600084156105745750858301515b600019600386901b1c1916600185901b178555610520565b600085815260208120601f198616915b828110156105bb5788860151825594840194600190910190840161059c565b50858210156105d95787850151600019600388901b60f8161c191681555b5050505050600190811b01905550565b634e487b7160e01b600052603260045260246000fd5b634e487b7160e01b600052601160045260246000fd5b60ff82811682821603908111156101e8576101e86105ff565b600060018201610640576106406105ff565b5060010190565b60008251610659818460208701610382565b919091019291505056fea2646970667358221220149e216fcdeca12c802274049db89f80bd3c21ef712a08dc9eb143bde9258dc864736f6c63430008140033",
  "linkReferences": {},
  "deployedLinkReferences": {}
}